{
  "_format": "hh-sol-artifact-1",
  "contractName": "L1BlockNumberRoulette",
  "sourceName": "contracts/L1BlockNumberRoulette.sol",
  "abi": [
    {
      "inputs": [
        {
          "internalType": "uint256",
          "name": "_roundDuration",
          "type": "uint256"
        }
      ],
      "stateMutability": "nonpayable",
      "type": "constructor"
    },
    {
      "inputs": [],
      "name": "BetChoiceInvalid",
      "type": "error"
    },
    {
      "inputs": [],
      "name": "BetValueRequired",
      "type": "error"
    },
    {
      "inputs": [],
      "name": "RoundEnded",
      "type": "error"
    },
    {
      "inputs": [],
      "name": "RoundInProgress",
      "type": "error"
    },
    {
      "inputs": [],
      "name": "_luckyNumber",
      "outputs": [
        {
          "internalType": "uint8",
          "name": "",
          "type": "uint8"
        }
      ],
      "stateMutability": "view",
      "type": "function"
    },
    {
      "inputs": [],
      "name": "lastRound",
      "outputs": [
        {
          "internalType": "uint256",
          "name": "",
          "type": "uint256"
        }
      ],
      "stateMutability": "view",
      "type": "function"
    },
    {
      "inputs": [],
      "name": "nextRound",
      "outputs": [
        {
          "internalType": "uint256",
          "name": "",
          "type": "uint256"
        }
      ],
      "stateMutability": "view",
      "type": "function"
    },
    {
      "inputs": [
        {
          "internalType": "uint8",
          "name": "_choice",
          "type": "uint8"
        }
      ],
      "name": "place",
      "outputs": [],
      "stateMutability": "payable",
      "type": "function"
    },
    {
      "inputs": [
        {
          "internalType": "uint256",
          "name": "",
          "type": "uint256"
        }
      ],
      "name": "roundBets",
      "outputs": [
        {
          "internalType": "uint8",
          "name": "choice",
          "type": "uint8"
        },
        {
          "internalType": "uint256",
          "name": "value",
          "type": "uint256"
        },
        {
          "internalType": "address",
          "name": "player",
          "type": "address"
        }
      ],
      "stateMutability": "view",
      "type": "function"
    },
    {
      "inputs": [],
      "name": "roundDuration",
      "outputs": [
        {
          "internalType": "uint256",
          "name": "",
          "type": "uint256"
        }
      ],
      "stateMutability": "view",
      "type": "function"
    },
    {
      "inputs": [],
      "name": "spin",
      "outputs": [
        {
          "internalType": "address[]",
          "name": "",
          "type": "address[]"
        }
      ],
      "stateMutability": "nonpayable",
      "type": "function"
    }
  ],
  "bytecode": "0x6080604052348015600f57600080fd5b50604051610cec380380610cec8339818101604052810190602f9190607a565b808060018190555043600281905550505060a2565b600080fd5b6000819050919050565b605a816049565b8114606457600080fd5b50565b6000815190506074816053565b92915050565b600060208284031215608d57608c6044565b5b60006099848285016067565b91505092915050565b610c3b806100b16000396000f3fe6080604052600436106100705760003560e01c806382bc07e61161004e57806382bc07e6146100fb578063f0acd7d514610126578063f19dd14e14610151578063f7cb789a1461017c57610070565b80631f9ab1931461007557806347e40553146100915780636bb49d1b146100bc575b600080fd5b61008f600480360381019061008a91906107bf565b6101a7565b005b34801561009d57600080fd5b506100a6610335565b6040516100b39190610805565b60405180910390f35b3480156100c857600080fd5b506100e360048036038101906100de919061084c565b61034c565b6040516100f2939291906108c9565b60405180910390f35b34801561010757600080fd5b506101106103b3565b60405161011d9190610805565b60405180910390f35b34801561013257600080fd5b5061013b6103b9565b60405161014891906109be565b60405180910390f35b34801561015d57600080fd5b506101666106d1565b60405161017391906109e0565b60405180910390f35b34801561018857600080fd5b506101916106ec565b60405161019e9190610805565b60405180910390f35b436101b0610335565b10156101e8576040517f6b5fd31b00000000000000000000000000000000000000000000000000000000815260040160405180910390fd5b600a8160ff1610610225576040517fcf359f1100000000000000000000000000000000000000000000000000000000815260040160405180910390fd5b6000341161025f576040517fae97d13f00000000000000000000000000000000000000000000000000000000815260040160405180910390fd5b600060405180606001604052808360ff1681526020013481526020013373ffffffffffffffffffffffffffffffffffffffff16815250908060018154018082558091505060019003906000526020600020906003020160009091909190915060008201518160000160006101000a81548160ff021916908360ff1602179055506020820151816001015560408201518160020160006101000a81548173ffffffffffffffffffffffffffffffffffffffff021916908373ffffffffffffffffffffffffffffffffffffffff160217905550505050565b60006001546002546103479190610a2a565b905090565b6000818154811061035c57600080fd5b90600052602060002090600302016000915090508060000160009054906101000a900460ff16908060010154908060020160009054906101000a900473ffffffffffffffffffffffffffffffffffffffff16905083565b60025481565b6060436103c4610335565b106103fb576040517f8c665a2c00000000000000000000000000000000000000000000000000000000815260040160405180910390fd5b60003073ffffffffffffffffffffffffffffffffffffffff1663f19dd14e6040518163ffffffff1660e01b8152600401602060405180830381865afa158015610448573d6000803e3d6000fd5b505050506040513d601f19601f8201168201806040525081019061046c9190610a73565b9050600080805490509050600060605b6000831115610625576000806001856104959190610aa0565b815481106104a6576104a5610ad4565b5b90600052602060002090600302016040518060600160405290816000820160009054906101000a900460ff1660ff1660ff168152602001600182015481526020016002820160009054906101000a900473ffffffffffffffffffffffffffffffffffffffff1673ffffffffffffffffffffffffffffffffffffffff1673ffffffffffffffffffffffffffffffffffffffff168152505090508460ff16816000015160ff16036105b157806040015182848151811061056757610566610ad4565b5b602002602001019073ffffffffffffffffffffffffffffffffffffffff16908173ffffffffffffffffffffffffffffffffffffffff16815250506001836105ae9190610a2a565b92505b60008054806105c3576105c2610b03565b5b6001900381819060005260206000209060030201600080820160006101000a81549060ff021916905560018201600090556002820160006101000a81549073ffffffffffffffffffffffffffffffffffffffff0219169055505090555061047c565b4360028190555060008211156106c757600082476106439190610b61565b905060005b838110156106c457600083828151811061066557610664610ad4565b5b602002602001015190508073ffffffffffffffffffffffffffffffffffffffff166108fc849081150290604051600060405180830381858888f193505050501580156106b5573d6000803e3d6000fd5b50508080600101915050610648565b50505b8094505050505090565b6000600a6106dd6106f2565b6106e79190610b92565b905090565b60015481565b60008073530000000000000000000000000000000000000173ffffffffffffffffffffffffffffffffffffffff16634599c7886040518163ffffffff1660e01b8152600401602060405180830381865afa158015610754573d6000803e3d6000fd5b505050506040513d601f19601f820116820180604052508101906107789190610bd8565b90508091505090565b600080fd5b600060ff82169050919050565b61079c81610786565b81146107a757600080fd5b50565b6000813590506107b981610793565b92915050565b6000602082840312156107d5576107d4610781565b5b60006107e3848285016107aa565b91505092915050565b6000819050919050565b6107ff816107ec565b82525050565b600060208201905061081a60008301846107f6565b92915050565b610829816107ec565b811461083457600080fd5b50565b60008135905061084681610820565b92915050565b60006020828403121561086257610861610781565b5b600061087084828501610837565b91505092915050565b61088281610786565b82525050565b600073ffffffffffffffffffffffffffffffffffffffff82169050919050565b60006108b382610888565b9050919050565b6108c3816108a8565b82525050565b60006060820190506108de6000830186610879565b6108eb60208301856107f6565b6108f860408301846108ba565b949350505050565b600081519050919050565b600082825260208201905092915050565b6000819050602082019050919050565b610935816108a8565b82525050565b6000610947838361092c565b60208301905092915050565b6000602082019050919050565b600061096b82610900565b610975818561090b565b93506109808361091c565b8060005b838110156109b1578151610998888261093b565b97506109a383610953565b925050600181019050610984565b5085935050505092915050565b600060208201905081810360008301526109d88184610960565b905092915050565b60006020820190506109f56000830184610879565b92915050565b7f4e487b7100000000000000000000000000000000000000000000000000000000600052601160045260246000fd5b6000610a35826107ec565b9150610a40836107ec565b9250828201905080821115610a5857610a576109fb565b5b92915050565b600081519050610a6d81610793565b92915050565b600060208284031215610a8957610a88610781565b5b6000610a9784828501610a5e565b91505092915050565b6000610aab826107ec565b9150610ab6836107ec565b9250828203905081811115610ace57610acd6109fb565b5b92915050565b7f4e487b7100000000000000000000000000000000000000000000000000000000600052603260045260246000fd5b7f4e487b7100000000000000000000000000000000000000000000000000000000600052603160045260246000fd5b7f4e487b7100000000000000000000000000000000000000000000000000000000600052601260045260246000fd5b6000610b6c826107ec565b9150610b77836107ec565b925082610b8757610b86610b32565b5b828204905092915050565b6000610b9d826107ec565b9150610ba8836107ec565b925082610bb857610bb7610b32565b5b828206905092915050565b600081519050610bd281610820565b92915050565b600060208284031215610bee57610bed610781565b5b6000610bfc84828501610bc3565b9150509291505056fea2646970667358221220aaf94189e55f0f16900bb5c86162673c7af370b0e00b64816ae1aaa25b24812564736f6c634300081b0033",
  "linkReferences": {},
  "deployedLinkReferences": {}
}